:020000040000fa
:080000000001040000000000f3
:020000040000fa
:040008007202000080
:020000040000fa
:04000c00720200007c
:020000040000fa
:040010007202000078
:020000040000fa
:040014007202000074
:020000040000fa
:040018007202000070
:020000040000fa
:04001c00720200006c
:020000040000fa
:040020007202000068
:020000040000fa
:040024007202000064
:020000040000fa
:040028007202000060
:020000040000fa
:04002c00720200005c
:020000040000fa
:040030007202000058
:020000040000fa
:0400340004020000c2
:020000040000fa
:040038007202000050
:020000040000fa
:04003c00720200004c
:020000040000fa
:040040007202000048
:020000040000fa
:04004400380200007e
:020000040000fa
:040048007202000040
:020000040000fa
:04004c00720200003c
:020000040000fa
:040050007202000038
:020000040000fa
:040054007202000034
:020000040000fa
:040058007202000030
:020000040000fa
:04005c00720200002c
:020000040000fa
:040060005402000046
:020000040000fa
:040064007202000024
:020000040000fa
:040068007202000020
:020000040000fa
:04006c00720200001c
:020000040000fa
:040070007202000018
:020000040000fa
:040074007202000014
:020000040000fa
:040078007202000010
:020000040000fa
:04007c00720200000c
:020000040000fa
:040080007202000008
:020000040000fa
:040084007202000004
:020000040000fa
:040088007202000000
:020000040000fa
:04008c0072020000fc
:020000040000fa
:0400900072020000f8
:020000040000fa
:0400940072020000f4
:020000040000fa
:0400980072020000f0
:020000040000fa
:04009c0072020000ec
:020000040000fa
:0400a00072020000e8
:020000040000fa
:0400a40072020000e4
:020000040000fa
:0400a80072020000e0
:020000040000fa
:0400ac0072020000dc
:020000040000fa
:0400b00072020000d8
:020000040000fa
:0400b40072020000d4
:020000040000fa
:0400b80072020000d0
:020000040000fa
:0400bc0072020000cc
:020000040000fa
:0400c00072020000c8
:020000040000fa
:0400c40072020000c4
:020000040000fa
:0400c80072020000c0
:020000040000fa
:0400cc0072020000bc
:020000040000fa
:0400d00072020000b8
:020000040000fa
:0400d40072020000b4
:020000040000fa
:0400d80072020000b0
:020000040000fa
:0400dc0072020000ac
:020000040000fa
:0400e00072020000a8
:020000040000fa
:0400e40072020000a4
:020000040000fa
:0400e80072020000a0
:020000040000fa
:0400ec00720200009c
:020000040000fa
:0400f0007202000098
:020000040000fa
:0400f4007202000094
:020000040000fa
:0400f8007202000090
:020000040000fa
:0400fc00720200008c
:020000040000fa
:040100007202000087
:020000040000fa
:040104007202000083
:020000040000fa
:04010800720200007f
:020000040000fa
:04010c00720200007b
:020000040000fa
:040110007202000077
:020000040000fa
:040114007202000073
:020000040000fa
:04011800720200006f
:020000040000fa
:04011c00720200006b
:020000040000fa
:040120007202000067
:020000040000fa
:040124007202000063
:020000040000fa
:04012800720200005f
:020000040000fa
:04012c00720200005b
:020000040000fa
:040130007202000057
:020000040000fa
:040134007202000053
:020000040000fa
:04013800720200004f
:020000040000fa
:04013c00720200004b
:020000040000fa
:040140007202000047
:020000040000fa
:040144007202000043
:020000040000fa
:04014800720200003f
:020000040000fa
:04014c00720200003b
:020000040000fa
:040150007202000037
:020000040000fa
:040154007202000033
:020000040000fa
:04015800720200002f
:020000040000fa
:04015c00720200002b
:020000040000fa
:040160007202000027
:020000040000fa
:040164007202000023
:020000040000fa
:04016800720200001f
:020000040000fa
:04016c00720200001b
:020000040000fa
:040170007202000017
:020000040000fa
:040174007202000013
:020000040000fa
:04017800720200000f
:020000040000fa
:04017c00720200000b
:020000040000fa
:040180007202000007
:020000040000fa
:040184007202000003
:020000040000fa
:0401880072020000ff
:020000040000fa
:04018c0072020000fb
:020000040000fa
:0401900072020000f7
:020000040000fa
:0401940072020000f3
:020000040000fa
:0401980072020000ef
:020000040000fa
:04019c0072020000eb
:020000040000fa
:0401a00072020000e7
:020000040000fa
:0401a40072020000e3
:020000040000fa
:0401a80072020000df
:020000040000fa
:0401ac0072020000db
:020000040000fa
:0401b00072020000d7
:020000040000fa
:0401b40072020000d3
:020000040000fa
:0401b80072020000cf
:020000040000fa
:0401bc0072020000cb
:020000040000fa
:0401c00072020000c7
:020000040000fa
:0401c40072020000c3
:020000040000fa
:0401c80072020000bf
:020000040000fa
:0401cc0072020000bb
:020000040000fa
:0401d00072020000b7
:020000040000fa
:0401d40072020000b3
:020000040000fa
:0401d80072020000af
:020000040000fa
:0401dc0072020000ab
:020000040000fa
:0401e00072020000a7
:020000040000fa
:0401e40072020000a3
:020000040000fa
:0401e800720200009f
:020000040000fa
:0401ec00720200009b
:020000040000fa
:0401f0007202000097
:020000040000fa
:0401f4007202000093
:020000040000fa
:0401f800720200008f
:020000040000fa
:0401fc00720200008b
:020000040000fa
:100200006f8020000e7f24000e0188000000000097
:10021000000020000000e000020032000001200089
:100220002002880014000700b00007000000e00072
:1002300003003a00c0f72000010020000200370050
:100240000000200001002000810f7000010032003a
:1002500014000700000020000000e000020032004f
:100260000000020000000000120e0200000000006a
:100270000040da000000fe004440a900a0812000f8
:100280000000e00003003200002020009001880000
:100290004440a800000006008a1f78008b1f7800e9
:1002a00000000600a1028800800478000000eb0036
:1002b0001f003700e284440054a0b4009905ba003e
:1002c000e284440054a0b4009906ba00e2844400d9
:1002d00054a0b4000006eb00476fde00fd07b2003b
:1002e000ae018800636ce10003003a00eaff0700fa
:1002f0000000eb000e003700606ce10008003a00df
:10030000004deb000a05e800020039003420ec0043
:100310000af0a0008b05e900f9ff3e000400370059
:100320006168e100010032000086eb000b0007006d
:1003300019c7ba001905ba000e04e00003003a001c
:100340000a00e000dbff3a0000000600fe07b200f2
:10035000ae0288008a047800f5ff37000cd0a300b5
:10036000e20f4d001c00390089027800354dba00bb
:100370000a05e800020039003420ec000af0a00071
:100380008b05e9000f003200254dba000a05e80090
:10039000020039003420ec000af0a0008b05e900cf
:1003a000080032000c00e0000600320015cdba0053
:1003b0000a05e800020039003420ec000af0a00031
:1003c0008b05e9008984e80054a0b4000b00e0002c
:1003d000e2ff3a00000006009902ba00055d7800cd
:1003e0008b05e900f7ff3200c82ade00055d7800c2
:1003f0008b05e900f3ff32000c00e000f1ff320052
:1004000019ddba00eeff3700801f78003200f800d7
:100410003400f80010002000a00188000020200017
:10042000900188000000fa0020338000004078002e
:10043000614060000080fb000040880020338000a5
:100440000000d100614060000080fb001040880087
:1004500010002000204088008860a9000080fa0079
:100460003400f9003200f9004f0078000040060027
:100470003200f8003400f800881f780018002000cf
:10048000a801880008202000980188004f04780007
:100490000000fa0088e0a9000080fa003400f900aa
:1004a0003200f900004006003200f8003400f80085
:1004b000881f780018002000a8018800082020006c
:1004c000980188004f0478000000fa00d704a800c3
:1004d00089c0a9000080fa003400f9003200f90058
:1004e000004006000040da000000fe0000000500a9
:1004f000839f68000100e00002003d0060001000e2
:10050000e08018000300e00002003d0060011100df
:10051000e0811900140007004f00e00002003b00da
:1005200060001000e080180000000600811f7800c5
:100530000100e00002003d0060001000e0801800b3
:100540000300e00002003d0060011100e08119009d
:10055000150007004f00e00002003b0060001000a3
:10056000e0801800000006006022b80006022000ab
:100570000000d0008180d2000482d2008582d200a7
:100580000000a0000202520083825a0003003100e2
:100590000202420083824a000000a1000603e90033
:1005a000f3ff3a0000000600efff07000400be0062
:0405b0000000060041
:020000040000fa
:1005b4008000000083000000860000008900000025
:1005c4008c0000008f0000009200000095000000e5
:1005d400980000009b0000009e000000a2000000a4
:1005e400a5000000a7000000aa000000ad00000064
:1005f400b0000000b3000000b6000000b900000025
:10060400bc000000be000000c1000000c4000000e7
:10061400c6000000c9000000cb000000ce000000ae
:10062400d0000000d3000000d5000000d700000077
:10063400da000000dc000000de000000e000000042
:10064400e2000000e4000000e6000000e800000012
:10065400ea000000eb000000ed000000ee000000e6
:10066400f0000000f1000000f3000000f4000000be
:10067400f5000000f6000000f8000000f90000009a
:10068400fa000000fa000000fb000000fc0000007b
:10069400fd000000fd000000fe000000fe00000060
:1006a400fe000000ff000000ff000000ff0000004b
:1006b400ff000000ff000000ff000000ff0000003a
:1006c400fe000000fe000000fe000000fd0000002f
:1006d400fd000000fc000000fb000000fa00000028
:1006e400fa000000f9000000f8000000f600000025
:1006f400f5000000f4000000f3000000f100000029
:10070400f0000000ee000000ed000000eb0000002f
:10071400ea000000e8000000e6000000e400000039
:10072400e2000000e0000000de000000dc00000049
:10073400da000000d7000000d5000000d30000005c
:10074400d0000000ce000000cb000000c900000073
:10075400c6000000c4000000c1000000be0000008c
:10076400bc000000b9000000b6000000b3000000a7
:10077400b0000000ad000000aa000000a7000000c7
:10078400a5000000a20000009e0000009b000000e5
:100794009800000095000000920000008f00000007
:1007a4008c00000089000000860000008300000027
:1007b400800000007c00000079000000760000004a
:1007c40073000000700000006d0000006a0000006b
:1007d4006700000064000000610000005d0000008c
:1007e4005a000000580000005500000052000000ac
:1007f4004f0000004c0000004900000046000000cb
:1008040043000000410000003e0000003b000000e7
:100814003900000036000000340000003100000000
:100824002f0000002c0000002a0000002800000017
:100834002500000023000000210000001f0000002c
:100844001d0000001b00000019000000170000003c
:100854001500000014000000120000001100000048
:100864000f0000000e0000000c0000000b00000050
:100874000a00000009000000070000000600000054
:100884000500000005000000040000000300000053
:10089400020000000200000001000000010000004e
:1008a4000100000000000000000000000000000043
:1008b4000000000000000000000000000000000034
:1008c400010000000100000001000000020000001f
:1008d4000200000003000000040000000500000006
:1008e40005000000060000000700000009000000e9
:1008f4000a0000000b0000000c0000000e000000c5
:100904000f0000001100000012000000140000009d
:100914001500000017000000190000001b00000073
:100924001d0000001f000000210000002300000043
:1009340025000000280000002a0000002c00000010
:100944002f000000310000003400000036000000d9
:10095400390000003b0000003e00000041000000a0
:100964004300000046000000490000004c00000065
:100974004f00000052000000550000005800000025
:100984005a0000005d0000006100000064000000e7
:10099400670000006a0000006d00000070000000a5
:1009a4007300000076000000790000007c00000065
:1009b40000000000ff000000000000000000000034
:1009c400020000000400000006000000080000000f
:1009d4000a0000000c0000000e00000010000000df
:1009e40012000000140000001600000018000000af
:1009f4001a0000001c0000001e000000200000007f
:100a0400220000002400000026000000280000004e
:100a14002a0000002c0000002e000000300000001e
:100a240032000000340000003600000038000000ee
:100a34003a0000003c0000003e00000040000000be
:100a4400420000004400000046000000480000008e
:100a54004a0000004c0000004e000000500000005e
:100a6400520000005400000056000000580000002e
:100a74005a0000005c0000005e00000060000000fe
:100a840062000000640000006600000068000000ce
:100a94006a0000006c0000006e000000700000009e
:100aa400720000007400000076000000780000006e
:100ab4007a0000007c0000007e000000800000003e
:100ac400820000008400000086000000880000000e
:100ad4008a0000008c0000008e00000090000000de
:100ae40092000000940000009600000098000000ae
:100af4009a0000009c0000009e000000a00000007e
:100b0400a2000000a4000000a6000000a80000004d
:100b1400aa000000ac000000ae000000b00000001d
:100b2400b2000000b4000000b6000000b8000000ed
:100b3400ba000000bc000000be000000c0000000bd
:100b4400c2000000c4000000c6000000c80000008d
:100b5400ca000000cc000000ce000000d00000005d
:100b6400d2000000d4000000d6000000d80000002d
:100b7400da000000dc000000de000000e0000000fd
:100b8400e2000000e4000000e6000000e8000000cd
:100b9400ea000000ec000000ee000000f00000009d
:100ba400f2000000f4000000f6000000f80000006d
:100bb400fa000000fc000000fe000000fe0000003f
:100bc400fc000000fa000000f8000000f60000003d
:100bd400f4000000f2000000f0000000ee0000004d
:100be400ec000000ea000000e8000000e60000005d
:100bf400e4000000e2000000e0000000de0000006d
:100c0400dc000000da000000d8000000d60000007c
:100c1400d4000000d2000000d0000000ce0000008c
:100c2400cc000000ca000000c8000000c60000009c
:100c3400c4000000c2000000c0000000be000000ac
:100c4400bc000000ba000000b8000000b6000000bc
:100c5400b4000000b2000000b0000000ae000000cc
:100c6400ac000000aa000000a8000000a6000000dc
:100c7400a4000000a2000000a00000009e000000ec
:100c84009c0000009a0000009800000096000000fc
:100c94009400000092000000900000008e0000000c
:100ca4008c0000008a00000088000000860000001c
:100cb4008400000082000000800000007e0000002c
:100cc4007c0000007a00000078000000760000003c
:100cd4007400000072000000700000006e0000004c
:100ce4006c0000006a00000068000000660000005c
:100cf4006400000062000000600000005e0000006c
:100d04005c0000005a00000058000000560000007b
:100d14005400000052000000500000004e0000008b
:100d24004c0000004a00000048000000460000009b
:100d34004400000042000000400000003e000000ab
:100d44003c0000003a0000003800000036000000bb
:100d54003400000032000000300000002e000000cb
:100d64002c0000002a0000002800000026000000db
:100d74002400000022000000200000001e000000eb
:100d84001c0000001a0000001800000016000000fb
:100d94001400000012000000100000000e0000000b
:100da4000c0000000a00000008000000060000001b
:100db4000400000002000000000000000000000029
:100dc400000000000000000000000000000000001f
:100dd400000000000000000000000000000000000f
:100de40000000000000000000000000000000000ff
:100df40000000000000000000000000000000000ef
:1011c4000100000002000000030000000400000011
:1011d40005000000060000000700000008000000f1
:1011e400090000000a0000000b0000000c000000d1
:1011f4000d0000000e0000000f00000010000000b1
:101204001100000012000000130000001400000090
:101214001500000016000000170000001800000070
:10122400190000001a0000001b0000001c00000050
:101234001d0000001e0000001f0000002000000030
:101244002100000022000000230000002400000010
:1012540025000000260000002700000028000000f0
:10126400290000002a0000002b0000002c000000d0
:101274002d0000002e0000002f00000030000000b0
:101284003100000032000000330000003400000090
:101294003500000036000000370000003800000070
:1012a400390000003a0000003b0000003c00000050
:1012b4003d0000003e0000003f0000004000000030
:1012c4004100000042000000430000004400000010
:1012d40045000000460000004700000048000000f0
:1012e400490000004a0000004b0000004c000000d0
:1012f4004d0000004e0000004f00000050000000b0
:10130400510000005200000053000000540000008f
:10131400550000005600000057000000580000006f
:10132400590000005a0000005b0000005c0000004f
:101334005d0000005e0000005f000000600000002f
:10134400610000006200000063000000640000000f
:1013540065000000660000006700000068000000ef
:10136400690000006a0000006b0000006c000000cf
:101374006d0000006e0000006f00000070000000af
:10138400710000007200000073000000740000008f
:10139400750000007600000077000000780000006f
:1013a400790000007a0000007b0000007c0000004f
:1013b4007d0000007e0000007f000000800000002f
:1013c400810000008200000083000000840000000f
:1013d40085000000860000008700000088000000ef
:1013e400890000008a0000008b0000008c000000cf
:1013f4008d0000008e0000008f00000090000000af
:10140400910000009200000093000000940000008e
:10141400950000009600000097000000980000006e
:10142400990000009a0000009b0000009c0000004e
:101434009d0000009e0000009f000000a00000002e
:10144400a1000000a2000000a3000000a40000000e
:10145400a5000000a6000000a7000000a8000000ee
:10146400a9000000aa000000ab000000ac000000ce
:10147400ad000000ae000000af000000b0000000ae
:10148400b1000000b2000000b3000000b40000008e
:10149400b5000000b6000000b7000000b80000006e
:1014a400b9000000ba000000bb000000bc0000004e
:1014b400bd000000be000000bf000000c00000002e
:1014c400c1000000c2000000c3000000c40000000e
:1014d400c5000000c6000000c7000000c8000000ee
:1014e400c9000000ca000000cb000000cc000000ce
:1014f400cd000000ce000000cf000000d0000000ae
:10150400d1000000d2000000d3000000d40000008d
:10151400d5000000d6000000d7000000d80000006d
:10152400d9000000da000000db000000dc0000004d
:10153400dd000000de000000df000000e00000002d
:10154400e1000000e2000000e3000000e40000000d
:10155400e5000000e6000000e7000000e8000000ed
:10156400e9000000ea000000eb000000ec000000cd
:10157400ed000000ee000000ef000000f0000000ad
:10158400f1000000f2000000f3000000f40000008d
:10159400f5000000f6000000f7000000f80000006d
:1015a400f9000000fa000000fb000000fc0000004d
:1015b400fd000000fe000000ff0000004865000080
:1015c4006c6c00006f000000546800006973000038
:1015d400207700006f7200006b730000203a000057
:0415e40044000000bf
:020000040000fa
:1015e8000000fa006266a9006246a9006666a900c2
:1015f8006646a90000c3b30014000700e70007000f
:1016080000c3b30011000700e400070000c3b300e3
:101618000e000700e100070080c3b3000b000700bd
:1016280000c1b30009000700c0c0b30007000700ed
:1016380060c0b3000500070010c0b3000300070036
:10164800e90007000080fa00000006000200fa0026
:10165800004f78001e407800f00107006666a80079
:101668006666a8006666a900f20007000080fa0016
:10167800000006000200fa00004f78006666a90024
:101688006646a8001e407800e40107006666a800c8
:101698006666a9006646a900e60007000080fa0011
:1016a800000006000800fa001007980021079800bb
:1016b80032079800be0090002e009000110007002d
:1016c8000000eb00000f7800060037001e007800cd
:1016d8009e0090000080400010407800e5ff070061
:1016e8001e0fe8001e0078009e0090000080400059
:1016f800104078000004e000f4ff3a000080fa008f
:10170800000006000400fa00000f78001107980096
:101718001e0078000000e00006003a001e0090005d
:101728008040780000c8b30000c04000c7ff070031
:10173800170037001e007800e10f500006003a003d
:101748001e0090008040780000ccb30000c040002c
:10175800beff07000e0037001e007800e20f5000a1
:1017680006003a001e0090008040780040c9b3008f
:1017780000c04000b5ff0700050037001e009000bc
:101788008040780040cdb30000c04000afff0700a4
:101798000080fa00000006000000fa0010c0b30044
:1017a800aaff070000c1b300a8ff07000080fa00e5
:1017b800000006000200fa00000f78001e00780002
:1017c800cf80de00026829008309200046fb07005d
:1017d800004078000043b000a6ff07001e00780014
:1017e800cf80de0002682900830920004dfb070036
:1017f800000f78001e007800cf80de00022424004d
:10180800f300200038fb0700004078000043b000d8
:1018180098ff07001e007800cf80de000224240015
:10182800f30020003ffb0700000f78001e0078003f
:10183800cf80de00026a2800130020002afb070080
:10184800004078000043b0008aff07001e007800bf
:10185800cf80de00026a28001300200031fb070059
:10186800000f78001e01780070a321000090b900d5
:10187800ca88de004f90de000080500000407800eb
:101888000043b0007bff07001e00780071a3210011
:101898000181b9004a99de00cf80de0001015100c4
:1018a800017122000191b900820078000100500006
:1018b800000f78009e007800803e2000000178002c
:1018c800110009008200d800004078000043b000f1
:1018d80068ff07009e007800803e20000001780025
:1018e800110009008200d8008000fd00000f780078
:1018f8001e017800b04721000090b900c388de00bf
:101908004f90de0000805000004078000043b00097
:1019180058ff07001e007800b14721000181b90077
:101928004399de00cf80de0001015100410620000e
:101938000191b9008200780001005000000f780082
:101948001e017800706626000090b900c288de008b
:101958004f90de0000805000004078000043b00047
:1019680044ff07009e007800706626000089b900d1
:101978004299de004f88de00000051006a01b9007c
:101988000200780000805000004078000043b0005a
:1019980038ff07000080fa00000006000000fa0087
:1019a8009621ef00010d8000f0fc2f000080600000
:1019b8000050a000000d880000fa2000e00c88000c
:1019c800a1e1a800000000004104800000082000f8
:1019d800008060000000e000fbff3200a1e1a900e8
:1019e8000080fa00000006000000fa009621ef00cf
:1019f800010d8000f0fc2f00008060000050a00066
:101a0800000d8800803e2000e00c8800a1e1a800bd
:101a180000000000410480000008200000806000f1
:101a28000000e000fbff3200a1e1a9000080fa00fd
:101a3800000006000000fa009621ef00010d80006a
:101a4800f0fc2f00008060000050a000000d88000e
:101a580000192000e00c8800a1e1a80000000000a7
:101a68004104800000082000008060000000e000c1
:101a7800fbff3200a1e1a9000080fa000000060087
:101a88000000fa006206a8006226a8006a06a900fb
:101a98006a26a9000080fa00000006000a00fa0081
:101aa800100798002107980032079800430798000c
:101ab8000000eb00000f78001e00900000004000be
:101ac800800078002e009000008f40003e009000bb
:101ad800100078009e0f50004c0032001e00780065
:101ae800e10f50000a003200e10f500003003c00f3
:101af8000000e0003600320044003700e20f5000da
:101b080023003200e30f5000110032003f0037007d
:101b18003e009000100078000000e00006003a0047
:101b28004e009000100078008000e9004e00900000
:101b380001087800350037004e009000100078004a
:101b48008000e8004e009000010878002f00370060
:101b58003e00900010007800e10f500006003a00a7
:101b68004e009000100078008000e9004e009000c0
:101b780001087800250037004e009000100078001a
:101b88008000e8004e009000010878001f00370030
:101b98003e00900010007800e30f500006003a0065
:101ba8004e009000100078008000e9004e00900080
:101bb80001087800150037004e00900010007800ea
:101bc8008000e8004e009000010878000f00370000
:101bd8003e00900010007800e20f500006003a0026
:101be8004e009000100078008000e9004e00900040
:101bf80001087800050037004e00900010007800ba
:101c08008000e8004e009000010878003e00900037
:101c18001e0878000080fa00000006000a00fa009a
:101c28006700070096ff07008b0007009e0007006b
:101c38006bfe0700360007007626ef000000eb0079
:101c480020079800100020000100200030079800ad
:101c5800410798006000b800008fbe0052002000c5
:101c68001100200000ae28008efe07004200200070
:101c78002100200060ae28008afe0700010037001e
:101c8800000000003e009000ce0090001e0f4000b3
:101c98005e9748003e019000ce019000f0002000c1
:101ca80001002000800f5100818f5900040034008a
:101cb800000120000100200030079800410798002b
:101cc800e00f2000010020001e01be00800f51001f
:101cd800818f5900020034006000b800008fbe00f8
:101ce800204080000000e000e5ff32009860a90075
:101cf8001140800000408000e60147006401470071
:101d080066ff07009860a8000428ef00ddff370091
:101d18000000fa0071058000f08f2f00008060003d
:101d28000080a0007005880089c0a90099c0a8009b
:101d3800c5e4a8000090200050268800b02b2000a1
:101d480040268800c404a900d604a900c02b20009e
:101d5800d0268800a0672000e02688000010200018
:101d6800f0268800d724a800d624a800b126800031
:101d7800f0f32f00008060000060a000b02688000b
:101d8800b12680000003200001007000b026880002
:101d9800b0268000c000b300b0268800c1268000ad
:101da800f00f2800008060000080a000c026880096
:101db800d604a800d704a8000080fa000000060096
:101dc8000000fa007646a9007666a9006286a90096
:101dd8007e46a9007e66a900b13e800000f82f006b
:101de800008060007000b300b03e8800b13e800003
:101df800f00f28000080600000b0a000b03e88000e
:101e0800f503a800f483a800f4a3a800f5e3a8004c
:101e18006686a9000080fa00000006000200fa00a9
:101e2800004f78001e80fb000020880000000000a2
:101e3800e11f800000802000008060000000e000ba
:101e4800fbff3a00002080006686a8006686a9008d
:101e58000080fa00000006000000fa009421a900a2
:101e680094c1a900a10c80000003200001007000ab
:101e7800a00c88009021ef0010272000900c88000b
:101e880041058000f0ff28000080600000c0a0002d
:101e9800400588008860a9009860a80095e1a8001e
:101ea8000080fa00000006000000fa00a021a90046
:101eb800a0c1a900010d80000003200001007000ee
:101ec800000d88009621ef0051058000f0ff2800e2
:101ed8000080600000c0a0005005880088e0a900cc
:101ee80098e0a800a1e1a9000080fa00000006001f
:020000040000fa
:101ef800000800000600000080000000000000004c
:020000040000fa
:020000040005f5
:045e300069ffff0007
:020000040000fa
:020000040005f5
:045e3800a3ffff00c5
:020000040000fa
:020000040005f5
:045e40009fffff00c1
:00000001FF
